:020000040800F2
:100000000050002061600008B55E0008B75E00087F
:10001000B95E0008BB5E0008BD5E0008000000007D
:10002000000000000000000000000000BF5E0008AB
:10003000C15E000800000000C35E0008C55E000845
:10004000A9600008A9600008A9600008A96000086C
:10005000A9600008A9600008A9600008A96000085C
:10006000A9600008A9600008A9600008C95E00082E
:10007000D55E0008E15E0008ED5E0008F95E00084C
:10008000055F0008115F0008A9600008A96000086A
:100090001D5F0008295F0008A96000082D5F0008A7
:1000A000A9600008A9600008A9600008A96000080C
:1000B000A9600008415F00084D5F0008A9600008C2
:1000C000A9600008A9600008A9600008A9600008EC
:1000D000A9600008595F0008A9600008655F000872
:1000E000A9600008A9600008A960000800000000DD
:1000F0000000000000000000000000000000000000
:0C01000000000000000000005FF808F1A3
:1001100010B5054C237833B9044B13B10448AFF341
:1001200000800123237010BD0802002000000000A1
:100130009CB1000808B5034B1BB103490348AFF35A
:10014000008008BD000000000C0200209CB10008E7
:1001500081F0004102E000BF83F0004330B54FEA78
:1001600041044FEA430594EA050F08BF90EA020FE5
:100170001FBF54EA000C55EA020C7FEA645C7FEA78
:10018000655C00F0E2804FEA5454D4EB5555B8BF9B
:100190006D420CDD2C4480EA020281EA030382EA0C
:1001A000000083EA010180EA020281EA0303362D9E
:1001B00088BF30BD11F0004F4FEA01314FF4801C71
:1001C0004CEA113102D0404261EB410113F0004F83
:1001D0004FEA03334CEA133302D0524263EB43033A
:1001E00094EA050F00F0A780A4F10104D5F1200ED8
:1001F0000DDB02FA0EFC22FA05F2801841F1000133
:1002000003FA0EF2801843FA05F359410EE0A5F106
:1002100020050EF1200E012A03FA0EFC28BF4CF037
:10022000020C43FA05F3C01851EBE37101F00045ED
:1002300007D54FF0000EDCF1000C7EEB00006EEBFA
:100240000101B1F5801F1BD3B1F5001F0CD3490884
:100250005FEA30004FEA3C0C04F101044FEA4452DB
:1002600012F5800F80F09A80BCF1004F08BF5FEA62
:10027000500C50F1000041EB045141EA050130BD42
:100280005FEA4C0C404141EB0101013C28BFB1F554
:10029000801FE9D291F0000F04BF01460020B1FA9F
:1002A00081F308BF2033A3F10B03B3F120020CDA72
:1002B0000C3208DD02F1140CC2F10C0201FA0CF050
:1002C00021FA02F10CE002F11402D8BFC2F1200CB5
:1002D00001FA02F120FA0CFCDCBF41EA0C0190406B
:1002E000E41AA2BF01EB0451294330BD6FEA0404B4
:1002F0001F3C1CDA0C340EDC04F11404C4F120029F
:1003000020FA04F001FA02F340EA030021FA04F3B0
:1003100045EA030130BDC4F10C04C4F1200220FA07
:1003200002F001FA04F340EA0300294630BD21FA45
:1003300004F0294630BD94F0000F83F4801306BF0B
:1003400081F480110134013D4EE77FEA645C18BFFF
:100350007FEA655C29D094EA050F08BF90EA020F96
:1003600005D054EA000C04BF1946104630BD91EA8E
:10037000030F1EBF0021002030BD5FEA545C05D191
:100380004000494128BF41F0004130BD14F58004D0
:100390003CBF01F5801130BD01F0004545F0FE4144
:1003A00041F470014FF0000030BD7FEA645C1ABF79
:1003B000194610467FEA655C1CBF0B46024650EAB0
:1003C000013406BF52EA033591EA030F41F40021DC
:1003D00030BD00BF90F0000F04BF0021704730B562
:1003E0004FF4806404F132044FF000054FF0000137
:1003F00050E700BF90F0000F04BF0021704730B5F8
:100400004FF4806404F1320410F0004548BF4042CC
:100410004FF000013EE700BF42004FEAE2014FEA21
:1004200031014FEA02701FBF12F07F4393F07F4FFC
:1004300081F06051704732F07F4208BF704793F0FF
:100440007F4F04BF41F40021704730B54FF4607412
:1004500001F0004521F000411CE700BF50EA010215
:1004600008BF704730B54FF000050AE050EA0102BE
:1004700008BF704730B511F0004502D5404261EB2E
:1004800041014FF4806404F132045FEA915C3FF46F
:10049000D8AE4FF003025FEADC0C18BF03325FEA0C
:1004A000DC0C18BF033202EBDC02C2F1200300FABD
:1004B00003FC20FA02F001FA03FE40EA0E0021FAE2
:1004C00002F11444BDE600BF70B54FF0FF0C4CF4D0
:1004D000E06C1CEA11541DBF1CEA135594EA0C0F82
:1004E00095EA0C0F00F0DEF82C4481EA030621EABD
:1004F0004C5123EA4C5350EA013518BF52EA0335F8
:1005000041F4801143F4801338D0A0FB02CE4FF0A9
:100510000005E1FB02E506F00042E0FB03E54FF0D9
:100520000006E1FB03569CF0000F18BF4EF0010ED1
:10053000A4F1FF04B6F5007F64F5407404D25FEACD
:100540004E0E6D4146EB060642EAC62141EA555180
:100550004FEAC52040EA5E504FEACE2EB4F1FD0CC2
:1005600088BFBCF5E06F1ED8BEF1004F08BF5FEA40
:10057000500E50F1000041EB045170BD06F00046F2
:1005800046EA010140EA020081EA0301B4EB5C049F
:10059000C2BFD4EB0C0541EA045170BD41F4801197
:1005A0004FF0000E013C00F3AB8014F1360FDEBFBC
:1005B000002001F0004170BDC4F10004203C35DA98
:1005C0000C341BDC04F11404C4F1200500FA05F31B
:1005D00020FA04F001FA05F240EA020001F00042BC
:1005E00021F0004110EBD37021FA04F642EB060132
:1005F0005EEA430E08BF20EAD37070BDC4F10C045C
:10060000C4F1200500FA04F320FA05F001FA04F21F
:1006100040EA020001F0004110EBD37041F100010B
:100620005EEA430E08BF20EAD37070BDC4F1200516
:1006300000FA05F24EEA020E20FA04F301FA05F27E
:1006400043EA020321FA04F001F0004121FA04F226
:1006500020EA020000EBD3705EEA430E08BF20EAF6
:10066000D37070BD94F0000F0FD101F00046400030
:1006700041EB010111F4801F08BF013CF7D041EAB2
:10068000060195F0000F18BF704703F000465200B6
:1006900043EB030313F4801F08BF013DF7D043EA87
:1006A0000603704794EA0C0F0CEA135518BF95EA3D
:1006B0000C0F0CD050EA410618BF52EA4306D1D1C4
:1006C00081EA030101F000414FF0000070BD50EAE3
:1006D000410606BF1046194652EA430619D094EA6D
:1006E0000C0F02D150EA013613D195EA0C0F05D157
:1006F00052EA03361CBF104619460AD181EA0301AB
:1007000001F0004141F0FE4141F470014FF0000062
:1007100070BD41F0FE4141F4780170BD70B54FF0FD
:10072000FF0C4CF4E06C1CEA11541DBF1CEA13557D
:1007300094EA0C0F95EA0C0F00F0A7F8A4EB05045F
:1007400081EA030E52EA03354FEA013100F0888056
:100750004FEA03334FF0805545EA131343EA12631F
:100760004FEA022245EA111545EA10654FEA0026D4
:100770000EF000419D4208BF964244F1FD0404F58D
:10078000407402D25B084FEA3202B61A65EB0305E9
:100790005B084FEA32024FF480104FF4002CB6EBA6
:1007A000020E75EB030E22BFB61A754640EA0C0026
:1007B0005B084FEA3202B6EB020E75EB030E22BF66
:1007C000B61A754640EA5C005B084FEA3202B6EBA7
:1007D000020E75EB030E22BFB61A754640EA9C0066
:1007E0005B084FEA3202B6EB020E75EB030E22BF36
:1007F000B61A754640EADC0055EA060E18D04FEAF4
:10080000051545EA16754FEA06164FEAC30343EA93
:1008100052734FEAC2025FEA1C1CC0D111F4801F60
:100820000BD141EA00014FF000004FF0004CB6E759
:1008300011F4801F04BF01430020B4F1FD0C88BFF8
:10084000BCF5E06F3FF6AFAEB5EB030C04BFB6EB03
:10085000020C5FEA500C50F1000041EB045170BDF6
:100860000EF0004E4EEA113114EB5C04C2BFD4EB23
:100870000C0541EA045170BD41F480114FF0000EA7
:10088000013C90E645EA060E8DE60CEA135594EA23
:100890000C0F08BF95EA0C0F3FF43BAF94EA0C0F26
:1008A0000AD150EA01347FF434AF95EA0C0F7FF49B
:1008B00025AF104619462CE795EA0C0F06D152EAEF
:1008C00003353FF4FDAE1046194622E750EA4106D3
:1008D00018BF52EA43067FF4C5AE50EA41047FF4E4
:1008E0000DAF52EA43057FF4EBAE12E74FEA410247
:1008F00012F5001215D211D56FF47873B3EB625272
:1009000012D94FEAC12343F0004343EA505311F098
:10091000004F23FA02F018BF404270474FF000002A
:10092000704750EA013005D111F0004008BF6FF068
:10093000004070474FF00000704700BF4FEA41028F
:10094000B2F1E04324BFB3F5001CDCF1FE5C0DD92D
:1009500001F0004C4FEAC0024CEA5070B2F1004F77
:1009600040EB830008BF20F00100704711F0804F7A
:1009700021D113F13872BCBF01F00040704741F43F
:1009800080114FEA5252C2F11802C2F1200C10FA43
:100990000CF320FA02F018BF40F001004FEAC12327
:1009A0004FEAD32303FA0CFC40EA0C0023FA02F3CB
:1009B0004FEA4303CCE77FEA625307D150EA0133A1
:1009C0001EBF4FF0FE4040F44000704701F0004071
:1009D00040F0FE4040F40000704700BF80F000404F
:1009E00002E000BF81F0004142001FBF5FEA410307
:1009F00092EA030F7FEA226C7FEA236C6AD04FEA07
:100A00001262D2EB1363C1BFD2184140484041404B
:100A1000B8BF5B42192B88BF704710F0004F40F4FD
:100A2000000020F07F4018BF404211F0004F41F419
:100A3000000121F07F4118BF494292EA030F3FD0E5
:100A4000A2F1010241FA03FC10EB0C00C3F12003F8
:100A500001FA03F100F0004302D5494260EB400087
:100A6000B0F5000F13D3B0F1807F06D340084FEAF2
:100A7000310102F10102FE2A51D2B1F1004F40EBE7
:100A8000C25008BF20F0010040EA0300704749004F
:100A900040EB0000013A28BFB0F5000FEDD2B0FAEC
:100AA00080FCACF1080CB2EB0C0200FA0CF0AABF0F
:100AB00000EBC25052421843BCBFD04018437047AD
:100AC00092F0000F81F4000106BF80F400000132B3
:100AD000013BB5E74FEA41037FEA226C18BF7FEA8A
:100AE000236C21D092EA030F04D092F0000F08BFCC
:100AF0000846704790EA010F1CBF0020704712F0B3
:100B00007F4F04D1400028BF40F00040704712F1F1
:100B100000723CBF00F50000704700F0004343F056
:100B2000FE4040F4000070477FEA226216BF08468C
:100B30007FEA23630146420206BF5FEA412390EA4F
:100B4000010F40F4800070474FF0000304E000BF45
:100B500010F0004348BF40425FEA000C08BF7047F6
:100B600043F0964301464FF000001CE050EA0102BA
:100B700008BF70474FF000030AE000BF50EA0102CF
:100B800008BF704711F0004302D5404261EB4101BC
:100B90005FEA010C02BF84460146002043F0B643E1
:100BA00008BFA3F18053A3F50003BCFA8CF2083A06
:100BB000A3EBC25310DB01FA02FC634400FA02FC0F
:100BC000C2F12002BCF1004F20FA02F243EB020016
:100BD00008BF20F00100704702F1200201FA02FC78
:100BE000C2F1200250EA4C0021FA02F243EB02006B
:100BF00008BF20EADC7070474FF0FF0C1CEAD052AF
:100C00001EBF1CEAD15392EA0C0F93EA0C0F6FD06F
:100C10001A4480EA010C400218BF5FEA41211ED04D
:100C20004FF0006343EA501043EA5111A0FB013139
:100C30000CF00040B1F5000F3EBF490041EAD3710E
:100C40005B0040EA010062F17F02FD2A1DD8B3F18A
:100C5000004F40EBC25008BF20F00100704790F0F9
:100C6000000F0CF0004C08BF49024CEA502040EA4B
:100C700051207F3AC2BFD2F1FF0340EAC250704711
:100C800040F400004FF00003013A5DDC12F1190F4F
:100C9000DCBF00F000407047C2F10002410021FAC1
:100CA00002F1C2F1200200FA02FC5FEA310040F1D9
:100CB000000053EA4C0308BF20EADC70704792F052
:100CC000000F00F0004C02BF400010F4000F013A8A
:100CD000F9D040EA0C0093F0000F01F0004C02BF85
:100CE000490011F4000F013BF9D041EA0C018FE7F4
:100CF0000CEAD15392EA0C0F18BF93EA0C0F0AD0FA
:100D000030F0004C18BF31F0004CD8D180EA01001F
:100D100000F00040704790F0000F17BF90F0004FB8
:100D2000084691F0000F91F0004F14D092EA0C0F9A
:100D300001D142020FD193EA0C0F03D14B0218BF2D
:100D4000084608D180EA010000F0004040F0FE4073
:100D500040F40000704740F0FE4040F4400070470F
:100D60004FF0FF0C1CEAD0521EBF1CEAD15392EA8E
:100D70000C0F93EA0C0F69D0A2EB030280EA010C7E
:100D800049024FEA402037D04FF0805343EA111117
:100D900043EA10130CF000408B4238BF5B0042F175
:100DA0007D024FF4000C8B4224BF5B1A40EA0C001A
:100DB000B3EB510F24BFA3EB510340EA5C00B3EB4C
:100DC000910F24BFA3EB910340EA9C00B3EBD10F3A
:100DD00024BFA3EBD10340EADC001B0118BF5FEA8C
:100DE0001C1CE0D1FD2A3FF650AF8B4240EBC250B5
:100DF00008BF20F0010070470CF0004C4CEA502076
:100E00007F32C2BFD2F1FF0340EAC250704740F4C4
:100E100000004FF00003013A37E792F0000F00F0B6
:100E2000004C02BF400010F4000F013AF9D040EA34
:100E30000C0093F0000F01F0004C02BF490011F4C8
:100E4000000F013BF9D041EA0C0195E70CEAD153C0
:100E500092EA0C0F08D142027FF47DAF93EA0C0FA7
:100E60007FF470AF084676E793EA0C0F04D14B028B
:100E70003FF44CAF08466EE730F0004C18BF31F03D
:100E8000004CCAD130F000427FF45CAF31F0004337
:100E90007FF43CAF5FE700BF4FF0FF3C06E000BFD0
:100EA0004FF0010C02E000BF4FF0010C4DF804CDF3
:100EB0004FEA40024FEA41037FEA226C18BF7FEA03
:100EC000236C11D001B052EA530C18BF90EA010F05
:100ED00058BFB2EB030088BFC81738BF6FEAE17094
:100EE00018BF40F0010070477FEA226C02D15FEA30
:100EF000402C05D17FEA236CE4D15FEA412CE1D09C
:100F00005DF8040B704700BF844608466146FFE762
:100F10000FB5FFF7C9FF002848BF10F1000F0FBD44
:100F20004DF808EDFFF7F4FF0CBF012000205DF83D
:100F300008FB00BF4DF808EDFFF7EAFF34BF0120C2
:100F400000205DF808FB00BF4DF808EDFFF7E0FF5B
:100F500094BF012000205DF808FB00BF4DF808EDAC
:100F6000FFF7D2FF94BF012000205DF808FB00BF0F
:100F70004DF808EDFFF7C8FF34BF012000205DF8F1
:100F800008FB00BF4FEA4002B2F1FE4F0FD34FF013
:100F90009E03B3EB12620DD94FEA002343F00043E6
:100FA00010F0004F23FA02F018BF404270474FF094
:100FB0000000704712F1610F01D1420205D110F01B
:100FC000004008BF6FF0004070474FF000007047CE
:100FD00042000ED2B2F1FE4F0BD34FF09E03B3EBA3
:100FE000126209D44FEA002343F0004323FA02F0CF
:100FF00070474FF00000704712F1610F01D14202BB
:1010000002D14FF0FF3070474FF00000704700BF33
:10101000034613F8012B002AFBD1181A0138704738
:101020004FF0FF3C06E000BF4FF0010C02E000BFB4
:101030004FF0010C4DF804CD4FEA410C7FEA6C5C97
:101040004FEA430C18BF7FEA6C5C1BD001B050EA3A
:10105000410C0CBF52EA430C91EA030F02BF90EA25
:10106000020F0020704710F1000F91EA030F58BFE4
:10107000994208BF90422CBFD8176FEAE37040F046
:10108000010070474FEA410C7FEA6C5C02D150EAE4
:10109000013C07D14FEA430C7FEA6C5CD6D152EA9F
:1010A000033CD3D05DF8040B704700BF8446104664
:1010B00062468C461946634600E000BF01B5FFF763
:1010C000B7FF002848BF10F1000F01BD4DF808ED33
:1010D000FFF7F4FF0CBF012000205DF808FB00BF04
:1010E0004DF808EDFFF7EAFF34BF012000205DF85E
:1010F00008FB00BF4DF808EDFFF7E0FF94BF0120AB
:1011000000205DF808FB00BF4DF808EDFFF7CEFFAB
:1011100094BF012000205DF808FB00BF4DF808EDEA
:10112000FFF7C4FF34BF012000205DF808FB00BFBB
:101130004FEA410C7FEA6C5C02D150EA013C0AD1D3
:101140004FEA430C7FEA6C5C02D152EA033C02D1C5
:101150004FF0000070474FF0010070474A0011D275
:1011600012F5001211D20DD56FF47873B3EB625201
:101170000ED44FEAC12343F0004343EA505323FA0D
:1011800002F070474FF00000704750EA013002D182
:101190004FF0FF3070474FF0000070474FEA4002B9
:1011A0004FEA41037FEA226C02D15FEA402C08D16A
:1011B0007FEA236C02D15FEA412C02D14FF000009C
:1011C00070474FF00100704738B5002200230446F5
:1011D0000D46FFF785FF28B920462946BDE838406F
:1011E00000F00AB8204605F1004100F005F8404241
:1011F00061EB410138BD00BFD0B500220B4B064664
:101200000F46FFF761F9FFF7A9FF0446FFF7E2F881
:101210000022074BFFF758F902460B463046394685
:10122000FEF79AFFFFF79AFF2146D0BD0000F03D80
:101230000000F04170477047436A10B59A6A12F097
:10124000500F1BD19A6A42F400729A621A6892682F
:1012500002F46022B2F5602F0CD11A7B52B99A6A5F
:1012600022F480729A629A6AD2045EBF9A6A42F04D
:1012700001029A621846FFF7DEFF10BD1B6ABDE847
:1012800010401B6B1847704708B5406AFFF7FBFF1B
:1012900008BD7047406A08B5836A43F04003836223
:1012A000C36A43F00403C362FFF7F3FF08BD000005
:1012B000002373B5019390F824300446012B6CD0C1
:1012C000012380F824304D680268062D086805EB7C
:1012D000850322D81F26556B053B9E4025EA06054F
:1012E00000FA03F32B43536309288B6800EB400596
:1012F0004FF0070129D9D6681E3DA94026EA010111
:10130000AB400B43D360A0F11003012B25D9002083
:10131000002384F8243002B070BD0C2D4FF01F055F
:1013200009D8166B233B9D4026EA050500FA03F316
:101330002B431363D8E7D66A413B9D4026EA050557
:1013400000FA03F32B43D362CEE71069A94020EAE9
:101350000101AB400B431361D9E7114B9A4216D1FF
:1013600093681B02D3D49368102843F4000393605E
:10137000CDD10C4B0C4A1B68B3FBF2F30A2253434A
:101380000193019B002BC2D0019B013BF8E7A36AAC
:10139000012043F02003A362BAE70220BBE700BFAD
:1013A000002401400000002040420F00002337B518
:1013B0000193036804469A68D20702D5002003B05F
:1013C00030BD9A6842F001029A60144B144A1B68BF
:1013D000B3FBF2F30193019BE3B900F005FA054674
:1013E00023689B68DB07E9D400F0FEF9401B022864
:1013F000F6D923689B6813F00103F1D1A26A01209A
:1014000042F01002A262E26A84F8243042F0010243
:10141000E262D4E7019B013BDCE700BF0000002053
:1014200040420F002DE9F0413F4B904602680446D0
:101430009A420F4602D03D498A4203D15B6813F4B9
:10144000702F6DD194F82430012B6BD001232046EE
:1014500084F82430FFF7AAFF064600285DD1A56A6C
:101460002168324B25F4706525F0010545F480753F
:101470009942A56204D12C4A536813F4702F3ED1CF
:10148000A36A23F48013A3624B685A0505D5A36AA7
:1014900023F4405343F48053A362A36A206A13F4F5
:1014A000805318BFE36A3A4618BF23F00603E3628D
:1014B000002384F824301E4B4C3183621D4BC362E1
:1014C0001D4B03636FF0020341F84C3C51F8443C60
:1014D00043F4807341F8443C434600F017FE236810
:1014E0009A6802F46022B2F5602F9A680CBF42F449
:1014F000A00242F480129A603046BDE8F081A36AEF
:1015000043F48013A36253685B0541BFA06A20F4D3
:10151000405040F48050A062BFE7002384F824309C
:101520000126E9E70226E7E7002401400028014000
:1015300039120008891200089512000838B50368AE
:1015400004469A68D10701D4002038BD9A6822F079
:1015500001029A6000F048F9054623689B68DB07A2
:10156000F2D500F041F9401B0228F6D923689B68A8
:10157000DA07F2D5A36A012043F01003A362E36AFD
:1015800043F00103E362E0E7F8B5044600286DD0BC
:10159000836A23B9C36280F8243004F057F82046E8
:1015A000FFF7CCFFA36A13F0100361D100285FD1CD
:1015B000A26A616822F4885222F0020242F002021A
:1015C000E569A668A262227B2943B6F5807F41EADD
:1015D000420136D0771E7D427D412D02277D012FAD
:1015E00006D182BBA269013A45EA423242F4006563
:1015F0002268B6F5807F576827F4694745EA0705F2
:10160000556097681D4D05EA070545EA0105956097
:1016100001D0012E02D12369013B1B05D56A25F4B7
:1016200070052B43D3629268154B1340994213D136
:101630000023E362A36A23F0030343F00103A362E0
:10164000F8BD3546CAE7A26A42F02002A262E26A09
:1016500042F00102E262CBE7A36A23F0120343F0F7
:101660001003A362E36A43F00103E3620120E7E7AA
:10167000A36A43F01003A362F8E700BFFDF7E1FFA0
:10168000FE0E1FFF002373B5019390F8243004462B
:10169000012B62D0012380F82430FFF74FFF204652
:1016A000FFF784FE054600282FD1A36A022023F409
:1016B000885323F0020343F00203A362284B1E6801
:1016C00000F0A2FBB6FBF0F676000196019B03BB8F
:1016D0002268936843F00803936000F085F806469B
:1016E00023689A68110718D49A6842F004029A6035
:1016F00000F07AF8064623689B685B0723D4A36A48
:1017000023F0030343F00103A362002384F8243091
:1017100016E0019B013B0193D8E700F065F8801BC0
:101720000A28DDD923689B681807D9D5A36A012543
:1017300023F0120343F01003A362002384F8243043
:10174000284602B070BD00F04FF8801B0A28D2D99D
:1017500023689B685A07CED5E8E70225F0E700BF6B
:101760000000002038B50E4B05461A784FF47A7306
:10177000B3FBF2F30B4A1068B0FBF3F000F04EFE3F
:10178000044658B90F2D09D8024629464FF0FF30BC
:1017900000F006FE2046044B1D6038BD0120FCE72A
:1017A000040000200000002008000020074A08B5BF
:1017B0001368032043F01003136000F0DFFD0820DE
:1017C000FFF7D0FF04F0D4FB002008BD002002404A
:1017D000034A044B11681B780B441360704700BF29
:1017E0002402002004000020014B1868704700BF4D
:1017F0002402002038B50446FFF7F6FF0546631CB7
:101800001EBF044B1B78E418FFF7EEFF431BA342F7
:10181000FAD338BD040000202DE9F341054638B362
:101820000368DB0710D42B689F075ED42B68190769
:1018300000F195802B685A0700F1C180EB69002BFD
:1018400040F02C81002029E0904C636803F00C03E9
:10185000042B07D0636803F00C03082B0AD16368DC
:10186000DE0307D523689C03DDD56B68002BDAD136
:10187000012013E06B68B3F5803F12D1236843F475
:1018800080332360FFF7B0FF064623689803CAD46D
:10189000FFF7AAFF801B6428F7D9032002B0BDE838
:1018A000F0819BB9236823F480332360236823F4F9
:1018B00080232360FFF798FF064623689903B2D57B
:1018C000FFF792FF801B6428F7D9E6E7B3F5A02F56
:1018D000236803D143F480232360CFE723F48033CC
:1018E0002360236823F48023CBE7684C636813F0FC
:1018F0000C0F07D0636803F00C03082B10D163684A
:10190000DA030DD423689B0702D52B69012BAFD1D5
:1019100023686A6923F0F80343EAC203236085E77A
:101920002A695B4B6AB101221A60FFF75DFF064628
:1019300023689F07ECD4FFF757FF801B0228F7D9D5
:10194000ABE71A60FFF750FF0646236898077FF55C
:101950006DAFFFF749FF801B0228F6D99DE7AA6902
:101960004A4E4B4BE2B10122C3F88024FFF73CFF03
:101970000446736A9B070DD54FF4FA52454B1B681A
:10198000B3FBF2F3019300BF019B5A1E0192002B9F
:10199000F9D14FE7FFF728FF001B0228E9D97CE7C0
:1019A000C3F88024FFF720FF0446736A9F077FF582
:1019B00041AFFFF719FF001B0228F6D96DE7334C42
:1019C000E369D80024D40127E36943F08053E3613D
:1019D000E36903F080530093009B2F4E3368D905D1
:1019E00018D5EB68012B26D1236A43F0010323624B
:1019F000FFF7FAFE41F288380646236A9B073FD577
:101A0000002F3FF41BAFE36923F08053E36115E738
:101A10000027E2E7336843F480733360FFF7E4FEA6
:101A200080463368DA05DCD4FFF7DEFEA0EB080061
:101A30006428F6D931E7ABB9236A41F2883823F03C
:101A400001032362236A23F004032362FFF7CCFE21
:101A50000646236A9807D3D5FFF7C6FE801B40458C
:101A6000F7D91AE7052B236A03D143F00403236255
:101A7000BAE723F001032362236A23F00403B6E7E5
:101A8000FFF7B2FE801B4045B7D906E700100240C1
:101A90000000424200000020007000402A4C6268B2
:101AA00002F00C02082A3ED00022022B274B1A66B5
:101AB0002CD1FFF799FE06462368990120D42B6AA2
:101AC000B3F5803F05D16268A96822F400320A4369
:101AD0006260696A62680B4322F474121343012244
:101AE00063601A4B1A66FFF77FFE054623689A016A
:101AF0003FF5A8AEFFF778FE401B0228F6D9CCE6EA
:101B0000FFF772FE801B0228D6D9C6E6FFF76CFEEF
:101B1000054623689B017FF595AEFFF765FE401BE8
:101B20000228F6D9B9E6012B3FF4A2AE60682B6A11
:101B300000F480329A427FF49BAE6B6A00F470101E
:101B4000C01A18BF0120A9E600100240000042425E
:101B50000D4A536803F00C01082912D10B48C3F356
:101B60008341DB03405C09D55368094AC3F3404312
:101B70005043084AD35CB0FBF3F07047064B584320
:101B800070470348704700BF00100240D2B1000800
:101B900000127A00D0B1000800093D002DE9F041A3
:101BA0000D46044610B90120BDE8F081444A13688F
:101BB00003F007038B4228D321688E0730D4CA076D
:101BC00043D43F4A136803F00703AB4265D8226849
:101BD0003C4D12F0040F6CD1130706D56B682269D7
:101BE00023F4605343EAC2036B60FFF7B1FF6B68F5
:101BF000354AC3F30313D35CD840344B1860344BDD
:101C00001868FFF7AFFD0020CEE7136823F0070345
:101C10000B431360136803F007038B42C3D1CBE778
:101C2000284B11F0040F1EBF5A6842F4E0625A605C
:101C3000080742BF5A6842F460525A605A68A06866
:101C400022F0F00202435A60B9E762681D4E012A91
:101C500033681AD113F4003FA5D0736841F2883875
:101C600023F0030313437360FFF7BEFD0746736859
:101C7000626803F00C03B3EB820FA2D0FFF7B4FD50
:101C8000C01B4045F3D903208EE7022A02D113F08E
:101C9000007FE1E713F0020FDEE7136823F007038C
:101CA0002B431360136803F00703AB427FF47BAF51
:101CB0008DE76B68E16823F4E0630B436B608BE7AF
:101CC0000020024000100240C0B1000800000020C7
:101CD00008000020044B054A5B68C3F30223D35C71
:101CE000034A1068D840704700100240B8B100089D
:101CF00000000020044B054A5B68C3F3C223D35C99
:101D0000034A1068D840704700100240B8B100087C
:101D10000000002003682DE9F3410546D80720D5CF
:101D2000364CE369D9002AD40126E36943F0805395
:101D3000E361E36903F080530193019B304F3B68FB
:101D4000DA051ED5236A13F440732ED1236A6A681C
:101D500023F44073134323621EB1E36923F08053DD
:101D6000E3612A68910706D52449A8684B6823F4E3
:101D7000404303434B60D30637D4002012E00026D3
:101D8000DCE73B6843F480733B60FFF72DFD804642
:101D90003B68DB05D6D4FFF727FDA0EB08006428DD
:101DA000F6D9032002B0BDE8F0816A6802F44072FF
:101DB0009A42CBD00120134A236AC2F84004002083
:101DC00023F44071DF07C2F840042162BED5FFF75B
:101DD0000BFD41F288380746236A9807B6D4FFF70F
:101DE00003FDC01B4045F7D9DBE7044AE9685368A7
:101DF00023F480030B435360BFE700BF0010024091
:101E00000070004000004242022808B544D010286B
:101E100003D0012822D0002034E0254B5A681868EE
:101E200010F080702ED0C2F383412248D20348BF05
:101E30005A68405C41BF2049C2F34042895C1F4A56
:101E40005B684CBFB2FBF1F21D4A5B0202FB00F083
:101E500018D403234000B0FBF3F013E040F202314A
:101E6000134A136A1940B1F5817F1ED003F4407301
:101E7000B3F5007F07D149F64040536A13F0020FD3
:101E800008BF002008BDB3F5407FC4D113684FF2EE
:101E9000244013F4003FF3E7FFF72CFF044B5B688B
:101EA000C3F3813301335B00D5E74FF40040E9E72A
:101EB00000100240E4B10008E2B1000800127A000C
:101EC00000093D002DE9F74F00244FF00F0E264684
:101ED000DFF884C1614B00F104080A6832FA06F5A4
:101EE00002D103B0BDE8F08F012505FA06F702EA3A
:101EF000070537EA020276D14A68032A07D8013A71
:101F0000022A00F28380DFE802F091969C00122AF8
:101F100000F0948069D8112A00F08A80FF2D94BFC8
:101F20008146C1464FEA8602D9F8007088BF203A40
:101F30000EFA02FA27EA0A0704FA02F21743C9F86E
:101F40000070D1F8049019F0805F4CD0DCF81820B4
:101F500026F0030742F00102CCF81820DCF8182024
:101F600007F1804702F00102019207F5803706F081
:101F7000030A019A4FEA8A0ABA680EFA0AFB22EAB1
:101F80000B0B374A904260D002F5806290425ED0DF
:101F900002F5806290425CD002F58062904214BFEC
:101FA0000422032202FA0AF242EA0B02BA609A6899
:101FB00019F4801F14BF2A43AA439A60DA6819F4FF
:101FC000001F14BF2A43AA43DA605A6819F4003F7D
:101FD00014BF2A43AA435A601A6819F4803F14BFF9
:101FE0002A43AA431A60013677E7DFF878904A451A
:101FF0000CD014D8A9F580194A4507D009F57029E5
:102000004A4503D0A9F580194A4587D18A68D2B1DB
:10201000012A4FF008040CBF076147617EE7DFF833
:1020200048904A45F2D009F58039EDE7CC6875E76C
:10203000CC68043472E7CC6808346FE7CC680C34A1
:102040006CE700246AE7042468E70022AAE701227B
:10205000A8E70222A6E700BF0010024000040140EA
:102060000008014000002210000031108068084084
:10207000003818BF012070470AB101617047090498
:10208000FBE7C36801EA030221EA030141EA0241D6
:1020900001617047044A08B55169014202D050619C
:1020A00002F0E2FF08BD00BF00040140034610B586
:1020B00030B301681420134A0A44B2FBF0F29200D4
:1020C0001A64114ADA63022283F82120D3E9012439
:1020D0002243DC68086822431C696FF30D10224319
:1020E0005C6922439C692243DC69224302430A6003
:1020F00000200122986383F8200083F8212010BD7E
:102100000120FCE7F8FFFDBF00000240F0B590F8A9
:102110002040012C34D0012480F8204090F8214048
:10212000012CE5B24FF0000428D1022680F821608E
:1021300084630468266826F001062660D0E90F67EC
:10214000BD40756063604368102BC36A0BBFA2601B
:10215000A160E160E2604BB1236843F00E03002010
:102160002360236843F001032360F0BD236823F05C
:1021700004032360236843F00A03F0E780F820405B
:102180000220F2E790F821200346022A06D004221A
:1021900082630120002283F8202070470268C06B10
:1021A000116821F00E011160116821F00101116028
:1021B00001211A6C01FA02F24260002083F821101A
:1021C000E8E7000008B590F82130022B03D0042383
:1021D0008363012008BD03681A6822F00E021A60AA
:1021E0001A6822F001021A60174A93421FD0143273
:1021F00093421ED0143293421DD0143293421DD00C
:10220000143293421DD01432934214BF4FF08073A6
:102210004FF480130D4A5360012380F821300023CE
:1022200080F82030436B03B198470020D2E70123A8
:10223000F0E71023EEE74FF48073EBE74FF48053A1
:10224000E8E74FF48033E5E7080002400000024071
:1022500070B40425C66B026C34680368954025424F
:10226000196832D04D0730D51A6896065EBF1A68D5
:1022700022F004021A603E4A934219D0143293426B
:1022800018D01432934217D01432934217D014321C
:10229000934217D01432934214BF4FF080634FF42F
:1022A0008003344A5360C36A002B5ED070BC184769
:1022B0000423F6E74023F4E74FF48063F1E74FF49B
:1022C0008043EEE74FF48023EBE70225954025425B
:1022D00035D08D0733D51A68940606D41A6822F0D3
:1022E0000A021A60012280F82120214A934219D063
:1022F0001432934218D01432934217D014329342BE
:1023000017D01432934217D01432934214BF4FF0B7
:1023100000734FF40013174A5360002380F82030F5
:10232000836AC1E70223F6E72023F4E74FF4007342
:10233000F1E74FF40053EEE74FF40033EBE70825E5
:102340009540254211D009070FD5196821F00E01DB
:102350001960012303FA02F27260836380F821306E
:10236000002380F82030036B9EE770BC704700BFED
:102370000800024000000240806B704707490302DA
:10238000CA6803F4E06322F4E0621204120C1343FF
:1023900043F0BF6343F40033CB60704700ED00E0CF
:1023A000154B30B5DC68C4F30224C4F10703251DC6
:1023B000042B28BF0423062D4FF0FF3594BF0024C3
:1023C000033C05FA03F321EA0303A54022EA0502D0
:1023D000A340002843EA0203ACBF00F16040074A73
:1023E0004FEA0313DBB2ABBF00F5614000F00F0012
:1023F00080F80033135430BD00ED00E014ED00E030
:10240000002807DB01234109034A00F01F00834035
:1024100042F82130704700BF00E100E00138B0F120
:10242000807F0BD24FF0E023F021054A586182F8FB
:1024300023100020072298611A617047012070471D
:1024400000ED00E038B5044600286ED090F820304A
:102450000BB903F065F92268136843F001031360B8
:10246000FFF7C2F9054623685A68D10751D51A68A3
:1024700022F002021A60FFF7B7F9054623685A688E
:10248000920754D4227E0020012A1A680CBF42F021
:10249000800222F080021A60627E012A1A680CBF54
:1024A00042F0400222F040021A60A27E012A1A681D
:1024B0000CBF42F0200222F020021A60E27E012AC4
:1024C0001A680CBF22F0100242F010021A60227F3C
:1024D000012A1A680CBF42F0080222F008021A60B2
:1024E000627F012A1A680CBF42F0040222F0040243
:1024F0001A60D4E902210A4321690A4361690A4347
:10250000616801390A43DA610123606284F820308E
:102510000CE0FFF769F9401B0A28A4D9636A43F469
:1025200000336362052384F82030012038BDFFF7B3
:102530005BF9401B0A28A1D9F0E770B590F820306C
:10254000013B012B63D803680120D3F8002242F03D
:102550000102C3F800224A69D3F81C5202F01F049A
:10256000A04025EA0005C3F81C52CD69C44395BBC1
:10257000D3F80C52CE682540C3F80C528D8803EB7B
:10258000C20245EA0645C2F840528E680D8845EA07
:102590000645C2F844528A697ABBD3F80422224025
:1025A000C3F804220A6962BBD3F814221440C3F8AA
:1025B00014420A6A012A04BFD3F81C2202434FF0D6
:1025C000000008BFC3F81C22D3F8002222F0010249
:1025D000C3F8002270BD012DDDD1D3F80C520E6876
:1025E0000543C3F80C528D8803EBC20245EA064549
:1025F000C2F840528E688D89C9E7D3F8042202439D
:10260000CEE7D3F814220243C3F81422D1E7436A79
:1026100043F4802343620120DCE738B590F8203092
:102620000446012B1FD10223026880F82030136872
:1026300023F001031360FFF7D7F8054623685868B5
:1026400010F0010001D1606238BDFFF7CDF8401BEA
:102650000A28F3D9636A43F400336362052384F8DC
:1026600020300120F0E7436A43F400234362F8E797
:10267000F0B590F820500468013D012DA6683CD8C3
:1026800016F0E05F33D00125C6F3016085401D6080
:10269000D1E9025700F1180315BB0D681B0147EA89
:1026A0004557E75004EB0013050100200E692C4448
:1026B000C3F88461097D012902BFD3F8841141F474
:1026C0008071C3F884115168C4F88C111268C4F881
:1026D0008821D3F8802142F00102C3F88021F0BDA7
:1026E0004E683D4345EAC6051B01E550DAE7436AFB
:1026F00043F4001343620120F1E7436A43F480236B
:10270000F8E7F0B590F82040013C012C71D806683C
:1027100041B9F468A40707D1436A43F40013436244
:102720000120F0BD3469F5E706EB0115D5F8B0716D
:102730000C0107F004079760002F50D1D5F8B07155
:102740007F0D1760D5F8B071264407F00207D760F7
:10275000D5F8B4713F074EBF0827D5F8B47107F01C
:102760000F071761D5F8B471D5F8B451C7F307272F
:102770002D0C97615561D6F8B8211A700268224471
:10278000D2F8B821120A5A7002682244D2F8B8214D
:10279000120C9A7002682244D2F8B821120EDA7034
:1027A00002682244D2F8BC211A7102682244D2F88D
:1027B000BC21120A5A7102682244D2F8BC21120CC0
:1027C0009A7102682244D2F8BC21120EDA710368B1
:1027D00051B9DA6842F02002DA600020A1E7D5F8AA
:1027E000B071FF085760ADE71A6942F020021A6124
:1027F000F3E7436A43F4802391E7704770477047DB
:102800007047704770477047704770477047704710
:1028100070472DE9F84F036805465E69D3F80490C8
:1028200016F00104D3F80880D3F80CB0D3F810A048
:102830009F6927D018F0010F07D0012218F0020F6E
:102840009A6000F0A580FFF7D8FF002418F4807F7D
:102850000AD04FF480722B6818F4007F9A6000F061
:10286000A6802846FFF7CAFF18F4803F0AD04FF42D
:1028700080322B6818F4003F9A6000F0A880284648
:10288000FFF7BDFF310707D51BF0100F1FBF102248
:102890002B6844F40074DA60720708D51BF0080F47
:1028A00005D008222B682846DA60FFF7ADFFB30792
:1028B00006D52B68DB68980702D02846FFF7A3FFF0
:1028C000710607D51AF0100F1FBF10222B6844F4B1
:1028D00080641A61B20608D51AF0080F05D00822E4
:1028E0002B6828461A61FFF790FFF30606D52B6880
:1028F0001B69980702D0284603F000FCB10308D5F5
:1029000019F0100F05D010222B6828465A60FFF7E7
:102910007DFFF20308D519F0080F05D008222B68B7
:1029200028465A60FFF773FF330428D519F0040FC7
:102930002A6822D0F00544BF07F001031C43B1050B
:1029400003D5BB0748BF44F00204700503D57907DF
:1029500048BF44F0040433050FD517F070030CD0C2
:10296000402B54D043D8202B4BD0302B4CD0102BA5
:1029700044D0936923F070039361042353602CB116
:102980006B6A284623436B62FFF742FFBDE8F88F6E
:1029900018F0040F05D118F0080F05D1FFF730FF2C
:1029A00053E74FF4006451E74FF480544EE718F4B6
:1029B000806F02D044F4005456E718F4006F02D040
:1029C00044F4804450E72846FFF71BFF4CE718F417
:1029D000802F02D044F4004454E718F4002F02D0B2
:1029E00044F480344EE72846FFF70CFF4AE7502BAB
:1029F00010D0602BBDD144F48074BAE744F00804D1
:102A0000B7E744F01004B4E744F02004B1E744F021
:102A10004004AEE744F08004ABE7016800224B6954
:102A200013F4806310D06FF480634B612023026342
:102A300080F83D3080F83E20036C80F83C2043F065
:102A40000403036401207047184670472DE9F846D7
:102A500006460F4691461D464FEA114A3368BAF1C1
:102A6000010F39D15C6927EA0404A4B2B4FA84F4F2
:102A70006409A14501D0002024E06A1CEFD0FEF7D4
:102A8000B3FE089BC01AA84201D8002DE6D1BAF1C6
:102A9000010F336818D15B6927EA03039BB2B3FACD
:102AA00083F35B099945D9D10023202201203363A8
:102AB00086F83D2086F83E30326C86F83C3042F095
:102AC00020023264BDE8F8869B69DB43C3F3400310
:102AD00083F00103DBB2E5E79C69E443C4F34004FF
:102AE00084F00104E4B2C4E72DE9F04104460F4646
:102AF000164698462568686927EA000080B2C0B18A
:102B00006B695A0517D52B68202243F400732B609C
:102B10006FF480636B610023236384F83D2084F8A5
:102B20003E30236C43F0040323640023012084F827
:102B30003C30BDE8F081731CDDD0FEF755FEA0EB04
:102B40000800B04201D8002ED4D123685A6927EA80
:102B5000020292B2002ACDD000232022236384F8FF
:102B60003D2084F83E30236C1343DDE770B5044606
:102B70000D46164623685B691B0601D500201EE042
:102B80002046FFF74AFFC8B96A1CF3D0FEF72CFEB7
:102B9000801BA84201D8002DECD123685B6913F09B
:102BA0008003E7D12022236384F83D2084F83E305F
:102BB000226C84F83C3042F020022264012070BD77
:102BC00070B504460D46164623685B695B0701D560
:102BD00000201EE02046FFF720FFC8B96A1CF3D092
:102BE000FEF702FE801BA84201D8002DECD123681D
:102BF0005B6913F00403E7D12022236384F83D20AE
:102C000084F83E30226C84F83C3042F0200222648A
:102C1000012070BD70B5044608B9012070BD90F860
:102C20003D3003F0FF021BB980F83C2002F028FE83
:102C3000242384F83D3023681A6822F001021A60C8
:102C40001A6842F400421A601A6822F400421A60BC
:102C5000FFF740F83F4B65689D4294BF3E4B3F4BAA
:102C600098428CBF00230123002BD6D1394E3C4B18
:102C7000B542B0FBF3F388BF4FF4967622685168F3
:102C800021F03F0141EA030182BF73434FF47A769A
:102C9000B3FBF6F35160116A013321F03F010B439E
:102CA0001362D169431E2B4821F44F41854221F024
:102CB000FF0132D86D00B3FBF5F340F6FC70013331
:102CC000034242D0C3F30B031943D1611168D4E925
:102CD000073021F0C00103430B4313609168D4E92E
:102CE000030321F40341034321F0FF010B439360ED
:102CF000D168D4E9053021F0FF0103430B43D360D1
:102D00001368002043F0010313602023206484F83B
:102D10003D30206384F83E0080E7A06850B905EBA1
:102D20004505B3FBF5F30133C3F30B037BB143F468
:102D30000043C9E719206843B3FBF0F30133C3F341
:102D40000B0323B143F44043BEE70423BCE7012354
:102D5000BAE700BFA08601007F841E00FF083D0087
:102D600040420F002DE9F043044685B098460D46D9
:102D700091460C9FFEF738FD94F83D300646202B17
:102D800004D00225284605B0BDE8F0830090192341
:102D9000012220465C49FFF759FE0028F1D194F842
:102DA0003C30012BEDD00123216884F83C300B68C6
:102DB000DA075EBF0B6843F001030B600B6823F476
:102DC00000630B60212384F83D30102384F83E30EB
:102DD00000232364A4F82A80638DC4F824902385FB
:102DE0004A4BE362E36A082B04D0012B02D013F5AF
:102DF000803F04D10B6843F480730B6002E0236BC7
:102E0000122BF7D000223B464FF0011120460096CE
:102E1000FFF71CFE226840B11368DB0501D40125D1
:102E2000B0E74FF400732364F9E72369B3F5804FEB
:102E300021D105F0FE05156133463A462046344956
:102E4000FFF752FE05460028E9D1236803905A692E
:102E500003929B690393039B238DF3B921680A684E
:102E600042F400720A60202284F83C3084F83D204D
:102E700084F83E3086E7EB1103F0060343F0F003DD
:102E80001361204633463A462249FFF72DFE0028BB
:102E9000C5D12368EDB21D61CEE7324639462046E2
:102EA000FFF764FE40B1236C042BB8D1226813688D
:102EB00043F400731360B2E7636A20681A4612F89D
:102EC000011B01616262628D013A92B26285228DBC
:102ED000D0F814C0511E89B21CF0040F21850AD00D
:102EE00049B15978023301616362638D023A013B53
:102EF0009BB263852285324639462046FFF760FE45
:102F00000028A9D0CFE700BF020010000000FFFF9B
:102F10000200010008000100036A026A70B522F095
:102F200001020262446882690D6822F073022A433A
:102F30008D6823F002032B430A4DA8420BD1CD68C4
:102F400023F008032B4324F44074D1E9055635439C
:102F500023F004032C43446082614A6842630362A5
:102F600070BD00BF002C0140036A026A70B522F4F4
:102F7000807202624468C2690D6822F073022A43BB
:102F80008D6823F4007343EA05230B4DA8420DD14D
:102F9000CD6823F4006343EA052324F44054D1E9C7
:102FA0000556354323F4806344EA05144460C26146
:102FB0004A68C263036270BD002C0140036A026A62
:102FC00030B522F4805202624468C2690D6822F46E
:102FD000E64242EA05228D6823F4005343EA0533B2
:102FE000064DA84202BF4D6924F4804444EA85148A
:102FF0004460C2614A680264036230BD002C014033
:1030000090F83D30012B20D1022380F83D30036839
:10301000DA6842F00102DA600D4A93420AD0B3F155
:10302000804F07D0A2F59432934203D002F580621C
:10303000934204D19A6802F00702062A03D01A6864
:1030400042F001021A60002070470120704700BF63
:10305000002C01400368DA6822F00102DA6041F2D4
:103060001112196A114208D140F24442196A114200
:1030700002BF1A6822F001021A60012380F83D3075
:10308000002070477047704770477047704703686B
:1030900070B5DD681E690446B1070DD5AA070BD5CA
:1030A0006FF002021A61012202779B699B0769D0C7
:1030B000FFF7EAFF00232377710710D56A070ED5C3
:1030C0006FF00402236820461A61022222779B696E
:1030D00013F4407F5CD0FFF7D7FF0023237733073B
:1030E0000FD528070DD56FF00802236820461A6116
:1030F00004222277DB69990750D0FFF7C5FF002330
:103100002377F20610D5EB060ED56FF01002236878
:1031100020461A6108222277DB6913F4407F43D0EE
:10312000FFF7B2FF00232377F00708D5E90706D59C
:103130006FF00102236820461A6101F0F9FD3206A2
:1031400008D52B0606D56FF08002236820461A6149
:1031500000F097FA700608D5690606D56FF04002B0
:10316000236820461A61FFF791FFB20622D5AB060D
:1031700020D56FF0200223682046BDE870401A6118
:1031800000F07EBAFFF77FFF2046FFF77EFF91E752
:10319000FFF779FF2046FFF778FF9EE7FFF773FF01
:1031A0002046FFF772FFAAE7FFF76DFF2046FFF703
:1031B0006CFFB7E770BD0000174A036890420AD061
:1031C000B0F1804F07D0A2F59432904203D002F5BF
:1031D0008062904207D14A6823F070031343CA68A3
:1031E00023F4407313434A6923F0800313430360BD
:1031F0008B68C3620B688362074B984204BF0B69FC
:103200000363012343610369DB0742BF036923F0C2
:1032100001030361704700BF002C014010B5044654
:1032200030B390F83D3003F0FF021BB980F83C202A
:1032300002F0CCFB0223206884F83D30211DFFF70B
:10324000BBFF0123002084F8463084F83E3084F828
:103250003F3084F8403084F8413084F8423084F8BC
:10326000433084F8443084F8453084F83D3010BD54
:103270000120FCE710B5044630B390F83D3003F070
:10328000FF021BB980F83C20FFF7FCFE02232068F8
:1032900084F83D30211DFFF78FFF0123002084F8C3
:1032A000463084F83E3084F83F3084F8403084F86B
:1032B000413084F8423084F8433084F8443084F854
:1032C000453084F83D3010BD0120FCE7036A026AF6
:1032D00070B522F010020262446882690D6822F41F
:1032E000E64242EA05228D6823F0200343EA0513F3
:1032F0000B4DA8420DD1CD6823F0800343EA05139E
:1033000024F44064D1E90556354323F0400344EAF0
:103310008504446082614A688263036270BD00BFB5
:10332000002C014038B590F83C300446012B4FD0BA
:103330000120082A84F83C003AD006D8BAB1042A01
:1033400026D0002384F83C3038BD0C2AF9D12068FF
:10335000FFF734FEC3690A6943F40063C361C369BC
:1033600023F48063C361C36943EA02232EE020682B
:10337000FFF7D2FD83690A6943F00803836183691B
:1033800023F0040383618369134383610020D8E73A
:103390002068FFF79BFF83690A6943F40063836138
:1033A000836923F480638361836943EA0223ECE742
:1033B0002068FFF7D9FDC3690A6943F00803C361B8
:1033C000C36923F00403C361C3691343C361DDE729
:1033D0000220B9E710B584680A4324F47F4442EA26
:1033E00003222243826010BD38B590F83C30044679
:1033F000012B4FF0020000F08E80012284F83D0086
:10340000206884F83C20836823F47F4323F077030B
:1034100083600B68602B4FD032D8402B64D016D815
:10342000202B0DD00AD833F0100109D0012384F8E5
:103430003D30002384F83C30104638BD302BF5D1A8
:10344000826822F07002134343F0070328E0502BF8
:10345000ECD14A68CD68016A036A21F00A0123F0C1
:103460000103036283690A4323F0F00343EA05136F
:1034700083610262836823F0700343F057030FE017
:10348000B3F5805F0DD0B3F5005F0CD0702BCDD1BC
:10349000CB68D1E90121FFF79DFF836843F07703F3
:1034A00083600022C2E7CB68D1E90121FFF792FFD8
:1034B000836843F48043F3E7036A026A4D6822F0AD
:1034C0001002C9680262826923F0A00322F47042EC
:1034D00043EA051342EA013282610362836823F002
:1034E000700343F06703DBE74A68CD68016A036A4B
:1034F00021F00A0123F00103036283690A4323F0E8
:10350000F00343EA051383610262836823F07003CA
:1035100043F04703C4E702468EE710B50124036A6F
:1035200001F01F018C4023EA04030362036A8A400E
:103530001A43026210BD000008B529B990F83E3068
:10354000012B1DD001202EE0042907D190F83F3037
:10355000012BF7D1022380F83F3014E0082907D16E
:1035600090F84030012BEDD1022380F840300AE082
:1035700090F84130012BE5D1022380F8413002E080
:10358000022380F83E3000680122FFF7C6FF0F4B90
:10359000984209D0B0F1804F0BD1836803F0070344
:1035A000062B0DD1002008BD436C43F40043436457
:1035B000F3E7074B9842F0D003F580639842ECD0D4
:1035C000036843F001030360ECE700BF002C0140F7
:1035D00000040040FFF7B0BF30B590F83C30024621
:1035E000012B4FF0020022D0136882F83D005C6886
:1035F0000D6824F070042C4398685C600C4CA34266
:103600000AD0B3F1804F07D0A4F59434A34203D07D
:1036100004F58064A34204D1496820F0800001438E
:1036200099600123002082F83D3082F83C0030BDD3
:10363000002C014090F83C300246012B1ED0CB6894
:10364000886823F440730343486823F4806303438A
:10365000086823F400630343086923F48053034399
:10366000486923F4005303430020C96923F48043CD
:103670000B4311684B6482F83C007047022070478E
:1036800070477047026802F10C0353E8003F23F4CF
:1036900090730C3242E8003102680029F2D102F145
:1036A000140353E8003F23F0010302F1140C4CE82B
:1036B00000310029F3D1036B012B0BD102F10C0374
:1036C00053E8003F23F0100302F10C0C4CE80031EA
:1036D0000029F3D1202380F8423000230363704790
:1036E00010B504460368C1681A6922F440520A43BF
:1036F0001A6182680069D9680243606921F4B05197
:1037000021F00C0102430A43DA605A69A16922F4EC
:1037100040720A435A610E4A934215D1FEF7EAFA03
:1037200019234343626820689200B3FBF2F36422DA
:10373000B3FBF2F102FB11331B013233B3FBF2F3A3
:1037400003EB0113836010BDFEF7C4FAE8E700BF86
:103750000038014010B5044648B390F8413003F0FA
:10376000FF021BB980F8402002F066FA2423226889
:1037700084F84130D368204623F40053D360FFF728
:10378000AFFF236800201A6922F490421A615A6937
:1037900022F02A025A61DA6842F40052DA602023E9
:1037A000606484F8413084F84230606310BD0120C9
:1037B000FCE7000038B50446134694F84120202A5F
:1037C00027D141B33BB300222120E384134D62642F
:1037D00084F84100A06BA38421628562104DC5620C
:1037E000104DC0E90C5222680432FEF78FFC6FF0D6
:1037F000400223681A60226802F1140353E8003F74
:1038000043F0800302F1140141E800300028F3D1B5
:1038100038BD0220FCE70120FAE700BFC9380008E4
:10382000173900082739000810B50446226802F14C
:103830000C0353E8003F23F490730C3242E800314C
:1038400023680029F2D103F1140252E8002F22F07C
:10385000010203F1140040E800210029F3D1226B9A
:10386000012A0BD103F10C0252E8002F22F01002C2
:1038700003F10C0040E800210029F3D15A695206F7
:103880001AD503F1140252E8002F22F0400203F18E
:10389000140040E800210029F3D1E06B60B14163DE
:1038A000FEF770FC40B1E06BFEF766FD202803D107
:1038B00010230320636410BD00202023E08584F8DA
:1038C00042302063F7E7704708B503461B68406A3B
:1038D0001B6813F020031AD1C384026802F1140399
:1038E00053E8003F23F08003143242E800310268BD
:1038F0000029F2D102F10C0353E8003F43F04003EA
:1039000002F10C0040E800310029F3D108BDFFF7B7
:10391000DAFFFBE7704708B5406AFFF7FBFF08BD19
:1039200070477047704708B5406A03685A6990F855
:103930004110212912D1120610D50022C28403F1B0
:103940000C0252E8002F22F0C00203F10C0C4CE8EC
:1039500000210029F3D1202280F841205B6990F8F2
:103960004220222A05D15B0603D50023C385FFF739
:1039700089FE436C43F010034364FFF7D3FF08BD97
:1039800008B50023406AC385C384FFF7CBFF08BD99
:1039900008B50123406A4363036B012B04D1818D79
:1039A000490801F053FA08BDFFF7BBFFFBE708B574
:1039B00003461B68406A1B6813F0200337D1C38598
:1039C000026802F10C0353E8003F23F480730C32C9
:1039D00042E8003103680029F2D103F1140252E8F1
:1039E000002F22F0010203F1140C4CE80021002901
:1039F000F3D103F1140252E8002F22F0400203F148
:103A0000140C4CE800210029F3D1202280F8422038
:103A1000026B012A0BD103F10C0252E8002F22F0B5
:103A2000100203F10C0C4CE800210029F3D1002313
:103A30004363036B012B03D1818D01F007FA08BDAD
:103A4000FFF76EFFFBE790F8423007B5222B42D11B
:103A500081680268B1F5805F836A3ED101690029FF
:103A60003ED15268C2F3080223F8022B8362C38D51
:103A7000013B9BB2C385002B2DD10268D16821F098
:103A80002001D160D16821F48071D160516921F0A9
:103A900001015161202280F842204363026B012A18
:103AA000026827D1036302F10C0353E8003F23F0BF
:103AB000100302F10C0C4CE800310029F3D113681B
:103AC000DB0605D501911368019353680193019BAF
:103AD000818D01F0BBF903B000BD39B9016929B985
:103AE0005268D2B21A70836A0133BFE7526802F09B
:103AF0007F02F7E7FFF714FFEDE70000036873B5F7
:103B00001A6804461607D9685D6908D1960668D513
:103B10008D0666D502B0BDE87040FFF794BF05F092
:103B2000010001F4907505435BD0D60705D5CD059E
:103B300042BF636C43F001036364530704D518B1BB
:103B4000636C43F002036364960704D518B1636C99
:103B500043F004036364150707D501F02003034312
:103B60001EBF636C43F008036364636C002B32D0A8
:103B7000920604D58B0602D52046FFF764FF26681F
:103B800020467369626C03F0400302F0080253EAB6
:103B9000020522D0FFF776FD73695E0618D522680C
:103BA00002F1140353E8003F23F04003143242E8CB
:103BB00000310029F3D1E06B50B1744B4363FEF741
:103BC00001FB40B1E06B436B02B0BDE870401847A9
:103BD0002046FFF7A7FE02B070BDFFF7A3FE6564A5
:103BE000F9E7206B012840F09480D50640F19180E0
:103BF000C80640F18E80002201921A6801925A682C
:103C00000192019A5A6952064DD5E16B0A685268D1
:103C100092B2002ADFD0A08D9042DCD9E2858A6979
:103C2000202A36D003F10C0252E8002F22F48072D1
:103C300003F10C0040E800210029F3D103F1140244
:103C400052E8002F22F0010203F1140040E80021A5
:103C50000029F3D103F1140252E8002F22F04002B0
:103C600003F1140040E800210029F3D1202284F858
:103C70004220216303F10C0252E8002F22F01002CF
:103C800003F10C0040E800210029F3D1E06BFEF7BE
:103C900079FA02236363E38DA18DC91A89B22046A4
:103CA00001F0D4F897E7E28DE18D92B289B2002954
:103CB00091D0A18D891A89B200298CD003F10C0210
:103CC00052E8002F22F4907203F10C0545E8002021
:103CD0000028F3D103F1140252E8002F22F0010270
:103CE00003F1140545E800200028F3D1202284F8D0
:103CF0004220206303F10C0252E8002F22F0100250
:103D000003F10C0545E800200028F3D1022363638A
:103D1000C5E7160628D50D0626D594F84120212A98
:103D20007FF459AFA168226AB1F5805F17D121698C
:103D3000A9B932F8021BC1F3080159602262E28C72
:103D4000013A92B2E284002A7FF445AFDA6822F0A9
:103D50008002DA60DA6842F04002DA603BE7511C28
:103D6000216212785A60EAE750067FF534AF4A06BE
:103D70007FF531AFDA68204622F04002DA60202376
:103D800084F84130FFF79FFD25E700BF8139000827
:103D900073B513468285002522220446816245645C
:103DA00080F84220C06B1D4A266882621C4AC262AB
:103DB0001C4AC0E90C250A46311DFEF7A7F9236805
:103DC00001951A6801925A680192019A22695AB1C2
:103DD00003F10C0252E8002F42F4807203F10C0050
:103DE00040E800210029F3D103F1140252E8002F2A
:103DF00042F0010203F1140040E800210029F3D150
:103E000003F1140252E8002F42F0400203F11401C2
:103E100041E800200028F3D102B070BDAF3900089E
:103E2000913900082739000870B590F84260202EBB
:103E300007D141B13AB100240463FFF7A9FF20463E
:103E400070BD0220FCE70120FAE773B590F84260EC
:103E50000446202E22D111B9012002B070BD002AE3
:103E6000FAD00123002503634563FFF791FF236B1D
:103E7000012BF1D1226801951368019353680193D6
:103E8000019B02F10C0353E8003F43F0100302F1E1
:103E90000C0141E800300028F3D1DEE70220DCE726
:103EA00038B51546FCF79EFD0D490446FDF760F850
:103EB00050B120460B49FCF795FD04462968204681
:103EC000FCF792FD286038BD20460749FDF732F81F
:103ED0000028F3D020460349FCF786FDEDE700BF3C
:103EE000000034430000B443000034C3F8B50F4F62
:103EF00006460D46144639680D4AFFF7D1FF0C4BB4
:103F00003E600C4E18600C4A28463168FFF7C8FF27
:103F1000094B3560094D1860094A20462968FFF7AA
:103F2000BFFF074B2C601860F8BD00BF30020020B7
:103F30003C0200202C020020380200202802002031
:103F40003402002013B53A2104F0D7FB044648B1EF
:103F500004F03CFC002301A90360601C03F0C8FDD1
:103F600002B010BD0048FBE7000080BF10B502F0B2
:103F70009FFA002821D0114CA269E169206AFFF75D
:103F8000B5FF0F4BA2699A60E2695A600D4A126848
:103F90001A60E2685A6122691A616269DA6022680D
:103FA0001A626268DA61A2689A61226C5A62626A75
:103FB0001A64A26ADA63E26A9A6310BD540C0020A4
:103FC000480500203C02002070B50C461349054608
:103FD000FCF7B0FFE0B928461149FCF7C9FF00B172
:103FE0000F4D104E20460D497560FCF7A3FF98B9A0
:103FF00020460B49FCF7BCFF60B109482946B06078
:10400000FCF7F2FC4FF07C51FCF7F6FDF06070BD60
:10401000024DE6E72046F1E70048EFE70000A0C2C6
:104020000000A04224050020034B93F8592182424E
:1040300018BF83F85901704740020020002370B573
:104040000F4C012684F8403184F858310023A4F83D
:104050004A61C4F85031FCF77BFD0A4B0546014626
:104060001868FCF7C1FC084BC4F84C011D6102F054
:104070002DFF064B30461E60BDE87040FFF7D4BFF1
:104080004002002048050020240500201C050020D7
:104090002DE9F843834FDFF81082B7F93A01FCF7B6
:1040A00057FD8249FCF7A8FD8149054620F00040F4
:1040B000D8F80040FCF73EFFA0B1002387F840315C
:1040C0007C4B7D4A1C60002313607C4A13607C4A51
:1040D00013607C4A53609360D36000237A4A136074
:1040E000BDE8F883794B1B7803F0FF02002B52D117
:1040F0000026704B87F840211C606F4B1E606F4B91
:104100001E60734BDFF8CC811C68734B1B78002B4F
:1041100040F092800020C8F80000704B1B78002B04
:1041200040F0B5803146FCF75FFC6D490446FCF772
:1041300001FF002840F0B38020466A49FCF718FFD1
:10414000002800F0AA8067485D4B67491860FCF7BB
:1041500053FD6649FCF750FD044601462846FCF72E
:1041600043FC064621462846564CFCF73BFC3146AC
:10417000FFF72AFF60684E4920F00040FCF7F8FE88
:1041800038B9A0684A4920F00040FCF7F1FE002849
:10419000A3D00123A2E797F8403133B9454BC7F8C4
:1041A0003C411C60012387F840312146D7F83C018F
:1041B000FCF718FC04464E4EDFF838913146204695
:1041C000FCF7CCFE50BB4C4EDFF828913146204620
:1041D000FCF7B0FE40BB494B21461868484BD3F86A
:1041E0000090FCF709FDD8F80C1006464846FCF78D
:1041F00003FD01463046FCF7F5FB2F4B41491C609F
:104200000646FCF797FEA8B930463F49FCF7B0FEDA
:1042100000B13D4E294B1E601E6872E7204649469C
:10422000FCF7E0FB0446C9E720464946FCF7DCFB07
:104230000446CBE7334EEDE797F84831002B3FF4C7
:1042400069AFFDF7D1FAD7F84431C01AC8283FF654
:1042500061AF2E4924F00040FCF776FE00B1002447
:104260002B4B21461868FCF7C7FC2A490446FCF78B
:1042700061FE50B920462849FCF77AFE00B1264C71
:10428000C8F80040D8F8000047E7224CF8E7234B75
:10429000188800B2FCF75CFC47E7204654E710485A
:1042A00052E700BF4002002048050020CDCCCC3DA5
:1042B0000AD7233CC4030020C0030020BC03002015
:1042C000B8030020240500201C050020C90300209D
:1042D000D0030020CC030020C8030020B603002038
:1042E000000096C3000096436F12833A0000C0405E
:1042F000000034430000B443000034C31400002025
:104300001000002000007AC400007A440000404001
:104310000C0000200000F0C20000F042B4030020B6
:1043200000F0D0BB38B500240025154B83F85A5156
:1043300083F86C5183F84051C3F84851A3F83A51BF
:10434000C3F8544183F858510E4B1C600E4B1C604F
:104350000E4B1A680E4B1A600E4B1C600E4B1C6005
:104360000E4B1C6002F0B2FD0D4B28465C609C6059
:10437000DC600C4B1D60BDE83840FFF755BE00BF48
:1043800040020020D0030020CC030020480500207C
:10439000C4030020C0030020BC030020B803002099
:1043A000240500201C0500202DE9F843A74C00F04F
:1043B0006FFC94F84A31002B00F0D780A44ED4F85B
:1043C0004C013168FCF70EFB0546A24FDFF88882EE
:1043D00039462846FCF7C2FD002867D19F4FDFF819
:1043E000788239462846FCF7A5FD002864D125F0DF
:1043F000004948469A49FCF7A7FD0027D6F80C80EB
:1044000000285FD0D4F8506129463046FCF7F4FB11
:104410003946FCF78FFD00B13E4692492846FCF72D
:10442000EBFB3146FCF7E0FA8F490646FCF7A0FDAE
:10443000002840F0828030468C49FCF77BFD00B1BB
:104440008A4E4FF07C514846C4F85061FCF77CFD21
:10445000002839D0864928F00040FCF775FD98B354
:1044600094F858310133DBB2032B84F858312ED93C
:10447000002584F84A5184F8585102F027FD94F839
:104480006C31022B5BD1032384F86C31794B84F8B7
:1044900040511B68C4F87031012384F84931C823A6
:1044A000A4F83A31FFF7F4FD284614E128464146C6
:1044B000FCF798FA05468BE728464146FCF794FA44
:1044C00005468EE7C4F85071002384F85831D4F8BB
:1044D0005001694920F00040FCF78EFB6749044613
:1044E0004846FCF789FB01462046FCF77DFA644903
:1044F000044628F00040FCF77FFB01462046FCF70D
:1045000071FA4FF07E510446FCF714FD38BB20468B
:104510005C49FCF72DFD00B15A4C0021284604F1FE
:104520000046FCF71BFDE8B121463046FFF74CFD85
:104530000122554B1A60BDE8F8834B4E81E7534B7F
:1045400002205F609F60DF604F4B1D60FFF76CFDD6
:10455000294694F86101BDE8F84300F0B9BB4FF07B
:104560007E54DAE731462046E0E794F84B61002EAE
:1045700000F0BD80364FD4F84C013968FCF732FAB0
:104580000546344EDFF8D08031462846FCF7E6FC7D
:1045900000284FD1DFF8C480DFF8BC9041462846A0
:1045A000FCF7C8FC064600284AD1394925F00040EE
:1045B000FF68FCF7C9FC002874D184F8580135491C
:1045C0003846FCF719FB01462846FCF70BFA32493E
:1045D0000546FCF7AFFC002840F0818028462F49B3
:1045E000FCF7C6FC00B12D4DD4F854612946304685
:1045F000FCF7F8F9294604463046FCF7F5F90021A6
:1046000005462046FCF796FC00286AD1204624493E
:10461000FCF7AEFC00B1224C00212846FCF78AFCD6
:10462000002862D128461E49FCF7A2FC00285AD077
:104630001B4998E728464146FCF7D4F90546A3E70D
:1046400028464946FCF7D0F90546A7E74002002076
:1046500048050020000034430000B443000034C388
:104660000000A0400AD7A33C00007041000070C1C8
:1046700000002041D00B00209A99993E6666663F63
:10468000CDCC4C3E0000F0411C050020240500204C
:10469000CDCC4C3F8FC2753C0000A0C10000A041B2
:1046A0000000A042604927F00040FCF74DFC0028C4
:1046B00083D094F858310133DBB2042B84F858319D
:1046C0007FF67DAF84F84B6184F8586184F84061CF
:1046D000FFF7DEFC3046BDE8F843FFF7A5BC534DBD
:1046E00082E7002498E729463DE700213BE794F85C
:1046F0005A51002D52D04E4BD4F85C111868FCF77B
:1047000071F94C4D2860FFF7C3FC4B492868FCF752
:1047100025FC00283FF40FAF94F8603184F85A610B
:10472000012B4FF48073A4F84A314FF000030CBF03
:10473000424E434E84F8403184F85831414B314663
:104740001868FCF751F9C4F84C01B4F93A01FCF7C8
:10475000FFF93D49FCF750FA20F0004528463A4958
:10476000FCF7E8FB394F40B1FD68374925F00045BB
:104770002846FCF7DFFB00B1354D28463549FCF7EC
:10478000F7FB00B1334DC4F8545101253E6184F864
:10479000495102F09BFB304B1D6085E694F86C613B
:1047A00006F0FD03012B20D1214BD4F870111868BD
:1047B000FCF718F9264920F00040FCF7CFFB80B148
:1047C000012E08D1022384F86C316FF05900BDE846
:1047D000F843FFF733BC84F86C51BDE8F843FFF7AA
:1047E000A1BDBDE8F843FFF753BC94F84931002B55
:1047F0003FF4A1AEFFF74CFC94F86131042B7FF439
:104800009AAE0B4BD4F864111868FCF7EBF8D4F8A7
:10481000681120F00040FCF7A1FB00283FF48BAEAC
:10482000FFF780FD94E600BF0000A0410000A0C19A
:10483000D00B0020D4030020000096420000B442B8
:104840000000B4C248050020CDCCCC3D240500209A
:104850000000F0410000A0421C0500200023044A93
:10486000D362044AD362044A1360044A1360704757
:104870000C0C0020D80B0020D00B002024050020B9
:104880000C4B10B54FF4BA7204460021184603F0E1
:104890002CFFFF22046080F85921FFF7DFFFFFF7AC
:1048A00041FD0020FFF7C0FB2046BDE8104000F0AE
:1048B000FBB800BF4002002038B5034600252D4C50
:1048C0002D48012B84F86C5184F84B5184F85A51CF
:1048D00084F84851057084F8495112D14ABBC82266
:1048E000A4F83A21254A84F861311370244A1370E0
:1048F000012384F84931002384F84031FFF7C8FBD5
:1049000016E0981E012816D8012A12D10A78012A29
:104910000FD8022B08BF5A2084F861310B7818BFDA
:104920006FF05900012B04BF404200B2FFF786FB35
:104930000125284638BD042BFBD1022AF9D108886D
:10494000A8B184F861310F4B1B68C4F86431FCF7DF
:10495000FBF80D49FCF750F9C8230122A4F83A31BD
:10496000064BC4F868011A70054B1D70C0E7054678
:10497000DFE700BF40020020B6030020C90300208B
:10498000C8030020D00B0020CDCCCC3D0022094B29
:1049900010B51A70FCF7DCF80124074B1860074BC0
:1049A0001C70FCF721FF064BC3F8440183F8484113
:1049B00010BD00BFB6030020D0030020C8030020B4
:1049C000400200200022024B1A70FFF7ABBC00BF70
:1049D000B6030020024670B5014441F221054FF6AE
:1049E000FF70082412F8013B80EA032006B243005E
:1049F00098B2002E04F1FF33B8BF684013F0FF04F3
:104A0000F4D19142EDD170BD70B51F4C154694F8AC
:104A10000821072A09D994F80731013A013303F034
:104A2000070384F8073184F80821172294F8063127
:104A30005343C3224633E618E2543C2373700123E8
:104A4000F070B370357121B11DB12A46701D03F0AD
:104A5000F8FEE91CB01CC9B2FFF7BCFF2E44707110
:104A6000000AB07194F806310735E218013303F0FB
:104A7000070384F8063194F8083182F8FE500133B8
:104A800084F8083170BD00BFD803002007B5902816
:104A90008DF805208DF8041014BF0222012201A90F
:104AA000FFF7B2FF03B000BD054B10B54FF488729D
:104AB00004460021184603F018FE046010BD00BF34
:104AC000D80300202DE9F0410D46014600283CD0D6
:104AD000002D3AD0402D694C18D9403D002329447F
:104AE0004025A4F84430B4F844002A460430204459
:104AF00003F0A7FEB4F844301D44A4F84450B4F8C1
:104B00004430012B21D900225D490AE0B4F8443039
:104B10002B449BB2402B84BF0023A4F84430E2E72F
:104B2000024611F8010BC32802D108783C280ED0A8
:104B3000501C02329342F3D82344DB78C32B12BFBC
:104B4000002323710123A4F84430BDE8F08195B21D
:104B50005DB1111D4A489A1A214403F0ADFDB4F825
:104B600044305B1B9BB2A4F84430042BEDD994F87D
:104B70000680B8F1010F02D1257A102D08D94149DC
:104B80005A1E92B2481EA4F8442003F095FDB6E7E1
:104B9000EF1D9F42D9D83C48E91CFFF71BFF631962
:104BA0009A7A5B7A43EA022383420ED1E379102B8F
:104BB0001AD0112B4DD0012B07D135B92A462946E1
:104BC000812084F80931FFF71FFFB4F8442005F174
:104BD0000B012B48D21B214403F06EFDB4F8443086
:104BE000DB1BA4F844308AE7002DEED0667A052E50
:104BF0000FD1012D01D0022213E0FFF7E3FE2A4678
:104C00003146912084F8095184F80A61FFF73EFF8C
:104C1000DBE794F80931012B06D0022B0CBF42468A
:104C2000032231469220F1E76A1E30461749D2B27C
:104C3000FFF742FE0028DED0022384F80A6184F8E0
:104C40000931FCF7D1FD0022C4F80C013146902057
:104C5000DCE7D4F8083123F07F4323F0FF03B3F5FA
:104C6000813FB2D1022DB0D1B4F90900FFF78EFE19
:104C7000FCF7BAFDC4F80C01A7E700BFD803002079
:104C8000DC030020DD030020DE030020E20300201F
:104C900010B50E4CD4F8083123F07F4323F0FF0306
:104CA000B3F5813F11D1FCF79FFDD4F80C31C01A48
:104CB000C8280AD9FFF786FE012184F809110322CA
:104CC000BDE810409120FFF7E1BE10BDD8030020E1
:104CD000084B0A4693F80911022909D193F80A11E1
:104CE000814205D1012083F809019120FFF7CEBE52
:104CF000704700BFD803002010B5074C00212046A4
:104D0000FEF768FC04212046FEF764FC40F2DC520A
:104D100023685A639A6310BD0809002000230361C9
:104D20000023C0E90033C0E902334361704700004B
:104D3000384BF7B59842054624D1FFF717F901F033
:104D4000FFF9FFF731FB344B344C1B68344F002B19
:104D500045D06168334801F039FFA168E06132480D
:104D600002F008F8E1692062304801F005FB216A91
:104D70002F4801F001FB2F4B2F4A2D492B4800975C
:104D800001F04CFB2D4B9D4242D12D4D6B6963B11F
:104D90002C4AAB6814682A689A4229DD01336A6894
:104DA000AB60EB681344EB606363274C636963B1EA
:104DB000244AA368166822689A4221DD013362689A
:104DC000A360E3681344E360B3636B6962691343F0
:104DD0001ED11A4803B0BDE8F040FEF73BB90026EB
:104DE00012483146E661266201F0C6FA3146BFE755
:104DF0002869FCF7EDF860632846FFF78FFFD4E7DA
:104E00002069FCF7E5F8B0632046FFF787FFDCE791
:104E100003B0F0BD780800201C0500202405002008
:104E200020050020340C0020000C00200C0C002079
:104E3000D80B0020220500207C070020C00800209D
:104E40000005002008090020E8040020F8B5724B96
:104E500006461980714B0C46984241D10023704D93
:104E60003F2994BF6B5485F83F302B78A52B06D192
:104E70006C4AD5F801105160D5F805109160022CEC
:104E800040F286806A783A2A40F082806448FFF7D0
:104E900059F82B78A3F14102152A79D8DFE802F0FE
:104EA0000B46486E78784A78667878787878785DB6
:104EB0007878747878545C4B18605848FEF7B4FCE6
:104EC00040220021564803F010FC40225449534828
:104ED000FEF7BBFF554B1A68136823F004031360F9
:104EE000534B9E4240F08180002C00F092800023C2
:104EF000184619464F4E504F16F8015BA5F10902AE
:104F0000D2B2172A49D827FA02F2D20740F181809B
:104F1000013189B28C42EFD100287AD0313B042B89
:104F200077D8DFE803F0434D63666E00434BC3E779
:104F3000434BC1E74FF07C51FCF710F8003818BF25
:104F40000120404B1870B8E74FF07C51FCF706F891
:104F5000003818BF01203C4BF4E73C4B18603C4B39
:104F60001A683C4B196801F097FFA6E70146394BD8
:104F70001860374B1A68354B1868F4E7344B024613
:104F80001860344B1968F6E7264B5860986094E730
:104F9000012B92D101F09AFF8FE7002839D1A5F1BA
:104FA0003103042B35D82B460120B1E7FFF7BAF9BE
:104FB00001220721234B28481A70FFF7B1F901E0BD
:104FC000FFF7B0F91A48FEF72FFC8022002119489C
:104FD00003F08BFB802217491548FEF736FF1F4B65
:104FE0001A68136823F004031360F8BDFFF736FC5A
:104FF000E8E7FFF797F90122124B062118481A70CB
:10500000DBE7FFF78FF901220E4B062115481A70D6
:10501000D3E721460748D0E7B6060020E80A00207B
:1050200038070020240500201400002094090020E7
:10503000780B0020B806002013008000100000202C
:105040000C000020C9030020C8030020200000201D
:10505000180000201C00002010B40008A40A002042
:105060000AB4000804B400080A2008B5FCF7C2FB23
:1050700020211148FCF7FAFF60B96420FCF7BAFB65
:105080000E4A13680133136020210B48FCF7EEFF32
:105090000028F9D040210848FCF7E8FF50B9642007
:1050A000FCF7A8FBFFF73EF940210348FCF7DEFFC1
:1050B0000028F9D008BD00BF000801401C050020F1
:1050C00010B594B0142200210CA803F00EFB14229A
:1050D00000210DEB020003F008FB1022002101A8C3
:1050E00003F003FB02244FF480330122CDE9114386
:1050F000CDE90A234FF4E0130AA80E921393FCF7AC
:105100008BFB08B172B6FEE70F23CDE905344FF4EF
:1051100080630790CDE90830214605A8FCF73EFDE5
:1051200008B172B6FEE74FF4004301A8019403935F
:10513000FCF7F0FD08B172B6FEE714B010BD000038
:105140002DE9F04F89B0FCF731FBFFF7B9FF00F014
:10515000D9F900F02DFB00F04FFA00F0C3FA00F08F
:105160006FFB00F0A1FC00F013FD00F02DFD00F03E
:1051700047FD00F0F7FB00F0BFFBAD4801F0ABFCD2
:105180004FF4FF634FF480726C21A94801F0B1FC29
:1051900001F0C8F81420FCF72DFB01F04BFBA549EA
:1051A000A54801F075F9A548FCF76CFA0122A4495D
:1051B000A248FCF737F94022A2499E48FEF745FE77
:1051C000A14BA2491A68A2481368DFF888A223F00D
:1051D000040313608022FEF738FE9F4B1A681368A1
:1051E00023F004031360FFF787FD9948FFF748FB9E
:1051F0009A48FDF705FF9A4F9A4C3D68214628468C
:10520000FBF7ACFE002840F00581974E314628465A
:10521000FBF790FE0446002840F00281934B944E29
:105220001868FBF7F9F8804670688946FBF7F4F8D0
:10523000CDE904018F4BDFF840B21868FBF7ECF8BA
:10524000CDE902018D4B1868FBF7E6F84246DFF81E
:1052500030824B46CDE900018A498B4803F0C6F9FC
:10526000D8F82800FBF7D8F802460B46DFF81C9266
:10527000CDE90623D9F82800FBF7CEF8DDE90623AF
:10528000CDE900018249834803F0B0F9824B834A9B
:10529000B3F90030B2F900208149824803F0A6F941
:1052A000DBF80000FBF7B8F802460B467E487F4962
:1052B00003F09CF92846FBF7AFF802460B46B868A6
:1052C000CDE90623FBF7A8F8DDE90623CDE90001C7
:1052D0007749784803F08AF901F080FA21462046A0
:1052E000754B6C4A009401F0DDFB0C212046724B9B
:1052F000654A009401F0D6FB182120466E4B6A4A9D
:10530000009401F0CFFB242120466B4B694A0094A6
:1053100001F0C8FB684B634A30212046009401F03D
:10532000C1FB01F063FA0520FCF764FAFCF75CFAB4
:10533000624B1A68801A63282FD93E4D95F8412098
:10534000202A2AD15E4C3A6822605E4A1268626066
:105350005D4A1268A2605D4A1268E2605C4A1268A7
:1053600022615C4A126862615B4A1268A2617268DB
:10537000E261B2682262D9F828206262D8F8282057
:10538000A2624FF0FF42E262FCF72EFA4B4B302252
:10539000186021462846FEF70DFA4FF400514F4899
:1053A000FCF76FFE264B1888FBF7CEFB4C49FBF74A
:1053B000D7FC4C49FBF720FC4B49FBF71DFC4B4B42
:1053C000044618604A4B4FF07E501E683146FBF78A
:1053D00009FBDBF80010FBF70FFC314605462046C1
:1053E000FBF70AFC01462846FBF7FEFA4149CBF8D9
:1053F0000000FBF7A9FD40490246B8B10B68013334
:10540000642B0B607FF4F7AE012210213B48FCF7C0
:1054100033FEF0E628465146FBF7E4FA0546EDE692
:1054200028465146FBF7E0FA0546EFE60860ECE750
:10543000FC070020E80A0020300B0020CC070020E9
:10544000840700203807002094090020B8060020B7
:10545000780B00200000B443A40A00207808002044
:105460004805002000003443000034C32000002021
:1054700024050020180000207C0700201C000020CC
:10548000D80B0020F4B10008840600200C0C00208A
:1054900008B2000852060020200500202205002046
:1054A00014B2000820060020EE0500201EB20008FD
:1054B00027B20008BC05002018B400081805002019
:1054C0008C050020C4030020C0030020BC03002082
:1054D000D0030020CC030020B803002000100140BE
:1054E00000F07F45333353406666B64080070020A6
:1054F0002400002066663241780700200008014041
:1055000072B6FEE7102270B588B00DEB02000021E4
:1055100003F0EBF8334B4FF400519A69324842F0F4
:1055200010029A619A69012402F010020092009A16
:105530009A69002542F020029A619A69022602F0D7
:1055400020020192019A9A6942F004029A619A69D2
:1055500002F004020292029A9A6942F008029A61E9
:105560009B69012203F008030393039BFCF784FD6E
:10557000002290211D48FCF77FFD002201211C48DC
:10558000FCF77AFD4FF40053CDE90434032304A95A
:105590001548CDE90653FCF795FC902304A9134860
:1055A000CDE9043406950796FCF78CFC6022114B7C
:1055B00004A90E48CDE904230694FCF783FC04A952
:1055C0000B48CDE90444CDE90656FCF77BFC2A469E
:1055D0000F211720FCF7E4FE1720FCF711FF08B09D
:1055E00070BD00BF001002400010014000080140E3
:1055F000000C01400000211030B5124A124B85B05A
:105600000024012513604FF460231046CDE90144C6
:105610000394946015731475D36154601561FBF79E
:10562000B3FF08B1FFF76CFF0623064801A9CDE9D7
:1056300001450393FBF73CFE08B1FFF761FF05B09E
:1056400030BD00BFCC0700200024014030B5054626
:1056500087B01022002102A803F047F82A681D4BEA
:105660009A4234D103F56C439A691B4842F40072A4
:105670009A619A6902A902F400720092009A9A69EA
:10568000164C42F004029A619B69012203F0040364
:105690000193019B0323CDE90223FCF713FC802037
:1056A0004FF480720023C4E903024FF4806C20227F
:1056B0000B492046C4E90013C4E905C2A360E361B5
:1056C000FCF7F4FC08B1FFF71BFF2C62656207B022
:1056D00030BD00BF002401400008014088070020C1
:1056E0000800024008B50C490C4B04220B60002353
:1056F0004FF4A020C1E901234FF48012C1E9040254
:105700000846CB608B618B83FCF79CFE18B1BDE82B
:105710000840FFF7F5BE08BDFC070020006400400C
:1057200010B5044686B01022002102A802F0DDFF69
:1057300022681D4B9A4235D103F5D633DA691B48EE
:1057400042F00072DA61DA6902A902F00072009296
:10575000009A9A6942F004029A619B6903F004037B
:105760000193019B4FF400630293FCF7ABFB4FF4F2
:1057700080520223CDE9022303230C4802A905939A
:10578000FCF7A0FB00220D211420FCF709FE1420D9
:10579000FCF736FE152000220D21FCF701FE152036
:1057A000FCF72EFE06B010BD00640040000801406A
:1057B000224B07B55A690B2042F001025A610022C0
:1057C0005B69114603F001030193019BFCF7E8FDBF
:1057D0000B20FCF715FE00220C201146FCF7E0FD23
:1057E0000C20FCF70DFE00220D201146FCF7D8FD21
:1057F0000D20FCF705FE00220E201146FCF7D0FD1F
:105800000E20FCF7FDFD00220F201146FCF7C8FD1D
:105810000F20FCF7F5FD002210201146FCF7C0FD1B
:105820001020FCF7EDFD002211201146FCF7B8FD19
:10583000112003B05DF804EBFCF7E2BD001002405C
:1058400008B50C490C4B0D4A0B600023C1E901233C
:105850004FF480420846C1E90423C1E90633CB6016
:105860000B62FDF7D7F918B1BDE80840FFF748BE55
:1058700008BD00BF2408002000540040801A060024
:1058800010B5044686B01022002102A802F02DFFB8
:105890002268154B9A4224D1144C4FF44072A369EC
:1058A000134843F00803A361A36902A903F00803A6
:1058B0000093009B1223CDE9022303230593FCF7F9
:1058C00001FB0C4A536843F0E06343F0020353606A
:1058D000E36943F40013E361E36903F40013019304
:1058E000019B06B010BD00BF0054004000100240F4
:1058F000000C0140000001407FB51022002102A8E9
:1059000002F0F3FE1549164A00230A6040F2CF2246
:10591000C1E9012340F2E7320846CDE90033C1E98D
:1059200003238B61FDF77AFC08B1FFF7E9FD4FF423
:1059300080530A4802A90293FDF756FD08B1FFF70C
:10594000DFFD002369460548CDE90033FDF744FE3D
:1059500008B1FFF7D5FD07B000BD00BFC0080020AB
:10596000000400407FB51022002102A802F0BDFE15
:105970001449154A00230A608F22C1E9012342F22B
:105980000F720846CDE90033C1E903238B61FDF7AF
:1059900045FC08B1FFF7B4FD4FF48053094802A954
:1059A0000293FDF721FD08B1FFF7AAFD0023694628
:1059B0000448CDE90033FDF70FFE08B1FFF7A0FD65
:1059C00007B000BD78080020000800401FB503683C
:1059D0001D4A93420BD11D4B9A6942F400629A61B1
:1059E0009B6903F400630193019B05B000BD184A55
:1059F000934214D1154B1D20DA690C2142F00202AA
:105A0000DA61DB69002203F002030293029BFCF7D8
:105A1000C7FC1D2005B05DF804EBFCF7F1BC0D4A96
:105A20009342E2D1094B1E20DA690C2142F00402B4
:105A3000DA61DB69002203F004030393039BFCF7A4
:105A4000AFFC1E20E6E700BF002C01400010024022
:105A5000000400400008004010B5044686B0102243
:105A6000002102A802F041FE22680D4B9A4214D197
:105A700003F564439A690B4842F004029A619B69FA
:105A80004FF4407203F004030193019B022302A927
:105A9000CDE902230593FCF715FA06B010BD00BF4F
:105AA000002C01400008014010B596B010220021E2
:105AB00003A802F01AFE00241C2221460DEB02006E
:105AC000CDE9014402F011FE202221460EA802F089
:105AD0000CFE2D4A2D4B104613608F23C2E9013472
